:020000040000FA
:0400000007EF00F016
:100008007F82BAED1AF04AEF19F0F2988B8AAB0E9C
:10001800936E82C0D9FF83C0DAFF000EDF6E84C002
:10002800D9FF85C0DAFF000EDF6E000E0001A26F57
:10003800FB0EA36F000EA46F000E01EC13F0F28804
:1000480088C0D9FF89C0DAFF000EDF6E0001A45115
:10005800D8B404D0030EA419D8A413D088C0D9FFEB
:1000680089C0DAFFDF50D8B40CD088C0D9FF89C066
:10007800DAFF000EDF6EF298010EA46F010E01EC9C
:1000880013F00001A451D8A45BD0899A8C828B9478
:10009800000E84B2010E9C6FF2884AD084A202D06E
:1000A800010E01D0000E9C19D8B442D0040E0001F4
:1000B8008C6F3D0EE82EFED78C2FFCD700D084A283
:1000C80002D0010E01D0000E00019C19D8B430D026
:1000D800040EA2650DD0000EA26FA32B5A0EA31911
:1000E800D8A406D0040EA46F040E01EC13F0AED70A
:1000F800800EFDEC1AF0070E00018C6F7D0EE82EC5
:10010800FED78C2FFCD7E10E706EFF0E716EA3C068
:1001180072F0736AA2C074F0756A82EC1AF000017A
:10012800A22B9C51D8A402D0010E01D0000E9C6FC6
:1001380088C0D9FF89C0DAFFDF50D8A487D7AED7E7
:10014800A405D8A4CFD1899A8C928B84A45101ECB0
:1001580013F082B002D08982899682A0FED7899254
:100168008996210E00018C6F760EE82EFED78C2F13
:10017800FCD700F0898A8C82000E84B2010E00013F
:100188009D6FA3C092F081BA0AD0A30E00018C6FB4
:10019800550EE82EFED78C2FFCD781AA46D084A214
:1001A80002D0010E01D0000E00019D19D8B4EBD782
:1001B800040E00018C6F3D0EE82EFED78C2FFCD765
:1001C80000D084A202D0010E01D0000E00019D19BA
:1001D800D8B4D9D7040EA2651FD0000EA26FA32BE6
:1001E80092518C6F8D6B030E8C27000E8D23A351BB
:1001F8008E6F8F6B8C518E5D8F51800A906F8D51F1
:10020800800A9059D8B011D05A0EA319D8A404D096
:10021800040E01EC13F009D0A22B9D51D8A402D0F2
:10022800010E01D0000E9D6FAED7899A8C9281BACB
:1002380074D0030E00018D6F8A0E8C6F550EE82E58
:10024800FED78C2FFCD78D2FFAD700D081BA65D076
:10025800898A8C8281B60BD0210E00018C6F760EB4
:10026800E82EFED78C2FFCD700F081A654D081BA97
:100278000FD0020E00018D6F450E8C6FA90EE82E6F
:10028800FED78C2FFCD78D2FFAD700D081AAE2D7C2
:10029800000E84B2010E00019E6F000E956F38D0DB
:1002A80081B60BD0210E00018C6F760EE82EFED79A
:1002B8008C2FFCD700F081A62ED084A202D0010E8C
:1002C80001D0000E00019E19D8B422D0040E0001FE
:1002D8008C6F3D0EE82EFED78C2FFCD700D084A261
:1002E80002D0010E01D0000E00019E19D8B410D022
:1002F800050EA219D8A403D0000EA26FA32BA22B1F
:10030800952B9E51D8A402D0010E01D0000E9E6FED
:10031800010E9565C5D7899A8C9289928986000EB7
:100328000001976F000E946F000E936F000E2ED091
:10033800982B000E976F000E946F000E936F8982B2
:10034800899682A0FED7898A8C82060E00018D6F5D
:10035800130E8C6FAD0EE82EFED78C2FFCD78D2F89
:10036800FAD700D00001A32B899A8C9289928986AA
:1003780081B60ED0A30E00018C6F550EE82EFED765
:100388008C2FFCD781B604D0640E0001986F0FD073
:100398000001972B9729D8A4EBD7000E976F934BA2
:1003A800942B600E935D030E9459D8A0E1D7030EE9
:1003B8009865BED78992899684C0D9FF85C0DAFF2F
:1003C800DF508C6F8C51050DF3CF8DF0F4CF8EF08C
:1003D8008D518625D96E8E518721DA6E84C0E1FF52
:1003E80085C0E2FFE7508F6F8F29DF6EA3512C0D78
:1003F800F3CF8CF0F4CF8DF0A251090DF3508C2778
:10040800F4508D2384C0D9FF85C0DAFFDF508E6F8A
:100418008E51050D86C08FF087C090F0F3508F275E
:10042800F4509023010E8F25D96E000E9021DA6EBC
:100438008CC0DEFF8DC0DDFF500E98613FD08982F1
:10044800899682A0FED78992899684C0D9FF85C0F3
:10045800DAFFDF5000018C6F8C51050D86C08DF0DE
:1004680087C08EF0F3508D27F4508E23040E8D250F
:10047800D96E000E8E21DA6E010EDF6E84C0D9FFB0
:1004880085C0DAFFDF508C6F8C51050D86C08DF06A
:1004980087C08EF0F3508D27F4508E23030E8D25E0
:1004A800D96E000E8E21DA6E000EDF6E84C0D9FF81
:1004B80085C0DAFFDF2A030EA46FC8D581B6FED740
:1004C800210E00018C6F760EE82EFED78C2FFCD7FC
:1004D80000F081B6F3D7020E0001A46F020E01EC02
:1004E80013F0B4D5020EA419D8A4E4D0899A8C923A
:1004F8008B84000EA16F82BC11D0070E00018D6F96
:10050800580E8C6F590EE82EFED78C2FFCD78D2FE6
:10051800FAD700D082BC16D0020E12D081A212D017
:10052800070E00018D6F580E8C6F590EE82EFED7FE
:100538008C2FFCD78D2FFAD700D081A203D0010EC3
:100548000001A16F84C0D9FF85C0DAFFDF50D8A4AD
:100558001CD00001A1510208A16F84C0D9FF85C039
:10056800DAFFDF508C6F8C51050D86C08DF087C087
:100578008EF0F3508D27F4508E23040E8D25D96EFE
:10058800000E8E21DA6E020E4BD084C0D9FF85C0D2
:10059800DAFFDF5000018C6F8C51050D86C08DF09D
:1005A80087C08EF0F3508D27F4508E23FC0E8D25D6
:1005B800D96EFF0E8E21DA6EDECF0DF0DDCF0EF094
:1005C800000E106E2C0E0F6EE0EC16F00001A35119
:1005D8008F6F906B0D508F5F0E50905B90BF06D061
:1005E8009051B7E1080E8F5DD8B0B3D7A15101087B
:1005F800A16F84C0D9FF85C0DAFFDF508C6F8C51A2
:10060800050D86C08DF087C08EF0F3508D27F4500D
:100618008E23040E8D25D96E000E8E21DA6E010E02
:10062800DF6E82C0D9FF83C0DAFFDF50010B086E8E
:10063800A1516FEC1AF084C0D9FF85C0DAFFDF50F2
:1006480000018C6F8C51050D86C08DF087C08EF02F
:10065800F3508D27F4508E23030E8D25D96E000E8E
:100668008E21DA6EA1C0DFFF82C0D9FF83C0DAFF16
:10067800A151DF26A45101EC13F00001A151D8B417
:100688000DD0270E00018D6F0D0E8C6F260EE82EF3
:10069800FED78C2FFCD78D2FFAD700F084C0D9FF56
:1006A80085C0DAFFDF2A030E0001A46F030E01ECF8
:1006B80013F0CCD4030EA419D8A450D0000E966F12
:1006C8008B948982899682A0FED789928996899A85
:1006D8008C82000E84B2010E00019F6FF29884A2F2
:1006E80002D0010E01D0000E9F19D8B4F8D7040E1D
:1006F80000018C6F3D0EE82EFED78C2FFCD700D062
:1007080084A202D0010E01D0000E00019F19D8B4B6
:10071800E6D7050EA219D8A418D0000EA26FA32BF5
:10072800962B020E9619D8A410D0F288F09088C0A3
:10073800D9FF89C0DAFF000EDF6E899A8C92000E0D
:10074800A46F000E01EC13F081D4A22B9F51D8A402
:1007580002D0010E01D0000E9F6FC1D7040EA4195C
:10076800D8A474D4898A8C928B94370EA327000E50
:1007780084B2010E27D084A202D0010E01D0000E4F
:10078800A019D8B420D0040E00018C6F3D0EE82EBD
:10079800FED78C2FFCD700D084A202D0010E01D046
:1007A800000E0001A019D8B40ED0A251D8A403D0CD
:1007B800A307050EA26FA207A051D8A402D0010E6C
:1007C80001D0000EA06FA351D8A4D5D7899A8C92D6
:1007D800990E046E000E056E3DEC18F0990E016E30
:1007E800000E026EFBEC15F0000120EE02F08051C5
:1007F800D9268151DA229B51DE5CD8B009D09B07FB
:1008080020EE02F08051D9268151DA223C0EDF26F3
:1008180080C0D9FF81C0DAFFDF508C6F9A513C0D40
:10082800F3CF8DF020EE01F08051D9268151DA22E4
:10083800DF50C40DF3508D258E6F8C518E5D992538
:100848008AC0D9FF8BC0DAFFDF6E120049C0D9FF1A
:100858004AC0DAFFDECFF6FFDDCFF7FF0800F5501C
:10086800250AD8A435D249C0D9FF4AC0DAFFDE2A02
:10087800000EDD22000E0001BC6F000EBB6FBBC076
:10088800BFF0BCC0C0F0BD69BE69000E5C6E000E52
:1008980019D00001BF8149C0D9FF4AC0DAFFDE2A5A
:1008A800000EDD2232D00001BF83F5D70001BF85DD
:1008B800F2D70001BF87EFD70001BF89ECD7000E40
:1008C8005C6E010E5B6E21D049C0D9FF4AC0DAFFC9
:1008D800DECFF6FFDDCFF7FF0800F5504D6E4E6A0C
:1008E8004E50000AD8A4EBD74D50200AD8B4E1D70F
:1008F800030AD8B4E1D7080AD8B4D8D7060AD8B4B6
:10090800C8D71D0AD8B4CFD7DAD75B505C10D8B493
:10091800DBD70001BFB1BF9349C0D9FF4AC0DAFF96
:10092800DECFF6FFDDCFF7FF0800F5502A0AD8A47E
:1009380023D049C0D9FF4AC0DAFFDE2A000EDD22E3
:100948004BC0D9FF4CC0DAFFDFCF4DF0020EDE26D8
:10095800DFCF4EF0000EDD224DC0D9FF4EC0DAFFCA
:10096800DECFBBF0DDCFBCF0BCAF3FD0BF81BB6DED
:10097800BC1FD8B0BC2B39D049C0D9FF4AC0DAFF58
:10098800DECF08F0DDCF09F0AAEC10F008C0BBF00C
:1009980009C0BCF007D049C0D9FF4AC0DAFFDE2A37
:1009A800000EDD22D00E4D6EFF0E4E6E49C0D9FFEF
:1009B8004AC0DAFFDECFF6FFDDCFF7FF0800F550BB
:1009C8004F6E506A4D504F264E505022505006E1FF
:1009D8000A0E4F5CD8B002D0010E01D0000E5D6E39
:1009E8005E6A5D505E10D8A4D6D749C0D9FF4AC008
:1009F800DAFFDECFF6FFDDCFF7FF0800F550640A17
:100A0800D8B40DD049C0D9FF4AC0DAFFDECFF6FF0F
:100A1800DDCFF7FF0800F550690AD8A43FD049C0D8
:100A2800D9FF4AC0DAFFDE2A000EDD224BC0D9FF0B
:100A38004CC0DAFFDFCF4DF0020EDE26DFCF4EF0DE
:100A4800000EDD224DC0D9FF4EC0DAFFDECF51F0D7
:100A5800DDCF52F0000E52BEFF0E536E546E556E2F
:100A6800566E576E586E47C020F048C021F051C0EE
:100A780022F052C023F053C024F054C025F055C0D2
:100A880026F056C027F057C028F058C029F0E5ECEA
:100A980007F020C047F021C048F0120049C0D9FF34
:100AA8004AC0DAFFDECFF6FFDDCFF7FF0800F550CA
:100AB800730AD8A42AD049C0D9FF4AC0DAFFDE2A6F
:100AC800000EDD224BC0D9FF4CC0DAFFDFCF4DF05E
:100AD800020EDE26DFCF4EF0000EDD224DC0D9FF1C
:100AE8004EC0DAFFDECF59F0DDCF5AF047C00EF026
:100AF80048C00FF059C010F05AC011F008EC10F0BF
:100B08000EC047F00FC048F0120049C0D9FF4AC0D4
:100B1800DAFFDECFF6FFDDCFF7FF0800F550750AE4
:100B2800D8A440D049C0D9FF4AC0DAFFDE2A000E57
:100B3800DD224BC0D9FF4CC0DAFFDFCF4DF0020EEB
:100B4800DE26DFCF4EF0000EDD224DC0D9FF4EC0AD
:100B5800DAFFDECF4FF0DDCF50F04FC060F050C06D
:100B680061F0626A636A646A656A666A676A47C04E
:100B780020F048C021F060C022F061C023F062C0BC
:100B880024F063C025F064C026F065C027F066C075
:100B980028F067C029F037EC0DF020C047F021C0DD
:100BA80048F0120049C0D9FF4AC0DAFFDECFF6FF8D
:100BB800DDCFF7FF0800F550780AD8B40DD049C04A
:100BC800D9FF4AC0DAFFDECFF6FFDDCFF7FF080016
:100BD800F550580AD8A44DD049C0D9FF4AC0DAFF09
:100BE800DECFF6FFDDCFF7FF0800F5CF5FF049C095
:100BF800D9FF4AC0DAFFDE2A000EDD224BC0D9FF3A
:100C08004CC0DAFFDFCF4DF0020EDE26DFCF4EF00C
:100C1800000EDD224DC0D9FF4EC0DAFFDECF4FF007
:100C2800DDCF50F04FC060F050C061F0626A636A77
:100C3800646A656A666A676A47C020F048C021F03E
:100C480060C022F061C023F062C024F063C025F0C8
:100C580064C026F065C027F066C028F067C029F098
:100C68005FC02AF020EC0AF020C047F021C048F00D
:100C7800120049C0D9FF4AC0DAFFDECFF6FFDDCF48
:100C8800F7FF0800F550250AD8A416D049C0D9FFA7
:100C98004AC0DAFFDE2A000EDD22000E066E250E9F
:100CA800056E47C007F048C008F0D2EC17F0000EF8
:100CB800486E010E476E120049C0D9FF4AC0DAFFDC
:100CC800DE2A000EDD22000E486E000E476E12006E
:100CD80049C0D9FF4AC0DAFFDECFF6FFDDCFF7FF04
:100CE8000800F550056E066A47C007F048C008F0CE
:100CF800D2EC17F049C0D9FF4AC0DAFFDE2A000E4D
:100D0800DD22D5D70F0EC16EF086F298F28EC00E96
:100D1800926E9368D90E946E000E956E0E0E966EB6
:100D28008C92899A899289968B948B9A08EC18F000
:100D3800A00E0E6E860E0F6E010E106E000E116E56
:100D480072EC18F0000E0001B86F010EB76F010EBB
:100D5800B46F000EB66F000EB56F3F0ED5EC1AF0EB
:100D68000001A56F050EA56105D03F0ED5EC1AF060
:100D78000001F06F0001E851D8B41DD0000EE86FF3
:100D8800B8C007F0B10E086E000E096EB70E0A6EF5
:100D9800000E0B6EB40E0C6E000E0D6EE30E0E6E92
:100DA800000E0F6EF0C010F081380F0B0F0B38ECEF
:100DB8000BF00001B86FB851D8A40ED0310EC16540
:100DC80009D0AA0E7C6E000E7D6E65EC0FF0000E49
:100DD8000001C16FC12BEBD0B805D8A432D0B10E39
:100DE800806F000E816FE50E826F000E836FE40E38
:100DF800846F000E856F000E866F010E876FE70EF9
:100E0800886F000E896FE60E8A6F000E8B6F09ECF3
:100E180000F0FB0E936EF0868B9AE4C003F0E5C0F9
:100E280004F0000E056E010E066EF00E076E000E41
:100E3800086E0001E6514AEC11F0020E0001B86F8D
:100E4800B6D0020EB819D8A406D0A0EC18F0000E3F
:100E58000001C26FACD0030EB819D8A40AD0E6C0FE
:100E680080F0816BE5C082F0E4C083F09BEC17F062
:100E78009ED0040EB819D8A40AD0000E806F010EB7
:100E8800816FC2C082F0836B4EEC0CF090D0050EDF
:100E9800B819D8A406D0C251D8A4C207040EB86F96
:100EA800ECD7060EB819D8A416D0E451A56FA66BD6
:100EB800C251A76FA86B010EA727000EA823A55142
:100EC800A75DA851800AA96FA651800AA959D8B070
:100ED800E5D7C22BE3D7070EB819D8A414D0B5C0EC
:100EE8007CF0B6C07DF0B7519DEC16F0B50E016EE2
:100EF800000E026EE80E036E000E046E0001B7517C
:100F080089EC13F054D0080EB819D8A403D0CDEC4E
:100F180018F04DD0090EB819D8A404D0E35109EC43
:100F280014F095D70A0EB819D8A404D0E35178EC78
:100F380012F03DD00B0EB819D8A406D0C2C07CF070
:100F4800E35108EC09F033D00C0EB819D8A40BD033
:100F5800C251D8A4C2070B0EB86FC2C07CF0E351CF
:100F680008EC09F024D00D0EB819D8A420D0E3510C
:100F7800400DF328D5EC1AF00001A56FA66BC251FD
:100F8800A76FA86B010EA727000EA823A551A75D80
:100F9800A851800AA96FA651800AA959D8A0C22BC6
:100FA8000B0EB86FC2C07CF0E35108EC09F0210EBB
:100FB8000001A56F760EE82EFED7A52FFCD700F00E
:100FC800D9D622C03AF023C03BF024C03CF025C05B
:100FD8003DF026C03EF027C03FF028C040F029C0B1
:100FE80041F041AE02D0010E01D0000E386E396AD0
:100FF80038503910D8B410D0411E401E3F1E3E1E36
:101008003D1E3C1E3B1E3A6C000E3B223C223D22FC
:101018003E223F22402241220001BEAFBF93BEBF05
:1010280005D0BE5108E1BD05D8B005D0000E356E1B
:10103800010E346E04D0BDC034F0BEC035F0BBC064
:1010480036F0BCC037F038503910D8A402D0BFA54C
:1010580003D03606D8A03706000E436E1F0E426E28
:10106800000EE26F7CD04206D8A04306C30E42248D
:10107800D96E000E4320DA6E3AC001F03BC002F090
:101088003CC003F03DC004F03EC005F03FC006F090
:1010980040C007F041C008F00A0E096E000E0A6E43
:1010A800000E0B6E000E0C6E000E0D6E000E0E6E16
:1010B800000E0F6E000E106EE6EC11F001C02AF063
:1010C80002C02BF003C02CF004C02DF005C02EF098
:1010D80006C02FF007C030F008C031F02AC013F066
:1010E8002CC014F0E4EC19F01350300FDF6E340606
:1010F800D8A035063606D8A037063AC001F03BC05E
:1011080002F03CC003F03DC004F03EC005F03FC013
:1011180006F040C007F041C008F00A0E096E000E44
:101128000A6E000E0B6E000E0C6E000E0D6E000E99
:101138000E6E000E0F6E000E106EC1EC0EF001C0A8
:101148003AF002C03BF003C03CF004C03DF005C0DB
:101158003EF006C03FF007C040F008C041F043BE73
:1011680020D0435003E14204D8A01BD03A503B1092
:101178003C103D103E103F1040104110D8A473D7CA
:1011880035BE05D0355002E13404D8B06CD737BE2F
:1011980008D0375003E13604D8A003D00001BFB30C
:1011A80062D738503910D8A403D00001BFA517D092
:1011B8004206D8A0430638503910D8A404D0000EEF
:1011C800336E2B0E03D0000E336E2D0E326EC30E0F
:1011D8004224D96E000E4320DA6E32C0DFFF20C0F1
:1011E80015F021C016F0C30E4224176E000E4320DE
:1011F800186E36C019F037C01AF050EC16F015C04A
:1012080020F016C021F012000001886F00018851FB
:10121800400DF328D5EC1AF00001806F800E806530
:1012280038D0800EFDEC1AF0070E0001806F7D0E9D
:10123800E82EFED7802FFCD7C00E706EFC0E716EA4
:1012480082EC1AF0C00EFDEC1AF0E40E706EFC0E83
:10125800716E82EC1AF0900EFDEC1AF0D20E706EE0
:10126800FC0E716E00018851400DF328D5EC1AF080
:101278000001806F8051726E736A82EC1AF0D00E92
:10128800FDEC1AF0D40E706EFE0E716E82EC1AF040
:1012980012008851400DF328D5EC1AF00009D8A4A3
:1012A8002DD0800EFDEC1AF0070E0001806F7D0E28
:1012B800E82EFED7802FFCD7910E706EFD0E716E52
:1012C80082EC1AF0C00EFDEC1AF05E0E706EFD0E88
:1012D800716E82EC1AF0900EFDEC1AF04D0E706EE5
:1012E800FD0E716E82EC1AF0D00EFDEC1AF0D40EE1
:1012F800706EFE0E716E82EC1AF012007C50040DB6
:10130800F3CF80F000018851400DF3508025030F82
:10131800D5EC1AF00001816F8151836F826B7C508C
:10132800040DF3CF84F08851400DF3508425040F49
:10133800D5EC1AF00001856F85518211866F8351B3
:10134800876F800EFDEC1AF0070E0001806F7D0E8E
:10135800E82EFED7802FFCD7830E706EFC0E716EC0
:10136800010E7C24726E736A000E732286C00DF023
:1013780087C00EF0030E106EE80E0F6EE0EC16F04C
:101388000DC074F00EC075F0030E0A6EE80E096EFB
:1013980086C007F087C008F063EC17F007C00DF0AF
:1013A80008C00EF0000E106E0A0E0F6EE0EC16F07C
:1013B8000DC076F00EC077F082EC1AF0C00EFDEC8E
:1013C8001AF09A0E706EFC0E716E7C50040DF3CFFD
:1013D80080F000018851400DF3508025050FD5ECB1
:1013E8001AF00001816F8151726E736A82EC1AF0F3
:1013F800900EFDEC1AF0AD0E706EFC0E716E7C5006
:10140800040DF3CF80F000018851400DF350802582
:10141800060FD5EC1AF00001816F8151726E736A64
:1014280082EC1AF0D00EFDEC1AF0070E706EFF0E6B
:10143800716E82EC1AF012000001BEAFBF93BEBFFE
:1014480005D0BE5108E1BD05D8B005D0000E386EF4
:10145800010E376E04D0BDC037F0BEC038F0BBC037
:1014680039F0BCC03AF0BFA904D0FE0E3926FF0EF1
:101478003A2222C03BF023C03CF024C03DF025C0F6
:101488003EF026C03FF027C040F028C041F029C0F8
:1014980042F0000E446E1F0E436E000EE26F93D0B2
:1014A8004306D8A044060F0E3B14456E466A46BE56
:1014B80008D0465004E10A0E455CD8A002D0570E69
:1014C80001D0300E4524456E000E4620466EBF0EF4
:1014D8002B6EFF0E2C6E2A502D6E2E6A2B502D2649
:1014E8002C502E222E5006E11A0E2D5CD8B002D0B8
:1014F800010E01D0000E336E346A33503410D8B464
:1015080027D09F0E2B6EFF0E2C6E200E45102D6ED1
:10151800000E46102E6E2B502D262C502E222E50AB
:1015280006E11A0E2D5CD8B002D0010E01D0000ED3
:10153800356E366A35503610D8B40AD045C007F033
:1015480046C008F025EC19F007C045F008C046F081
:10155800C30E4324D96E000E4420DA6E45C0DFFF67
:101568003706D8A038063906D8A03A063BC02BF073
:101578003CC02CF03DC02DF03EC02EF03FC02FF0F7
:1015880040C030F041C031F042C032F0050E09D001
:10159800D8903232313230322F322E322D322C3234
:1015A8002B32E82EF5D72BC03BF02CC03CF02DC0D9
:1015B8003DF02EC03EF02FC03FF030C040F031C0AB
:1015C80041F032C042F044BE21D0445004E1020E42
:1015D800435CD8A01BD03B503C103D103E103F1040
:1015E800401041104210D8A45BD738BE05D03850FF
:1015F80002E13704D8B054D73ABE08D03A5003E1D4
:101608003904D8A003D00001BFB34AD70001BFA94D
:1016180016D04306D8A04406C30E4324D96E000E44
:101628004420DA6E2AC0DFFF4306D8A04406C30E62
:101638004324D96E000E4420DA6E300EDF6E20C0CF
:1016480015F021C016F0C30E4324176E000E442077
:10165800186E39C019F03AC01AF050EC16F015C0DF
:1016680020F016C021F01200126E0750D8A451D0F5
:101678000D0E1218D8A40ED008C004F009C005F049
:101688003DEC18F008C001F009C002F0FBEC15F0C1
:10169800010E12000F0E1218D8A402D0070E120065
:1016A800090E1218D8A402D0080E1200030E121840
:1016B800D8A408D08982899682A0FED78992899673
:1016C800000E1200070E1218D8A40ED0899289862F
:1016D800A30E116E550EE82EFED7112EFCD700F082
:1016E80089928996000E1200020E1218D8A404D00E
:1016F800000E44EC15F08DD0060E1218D8A489D02F
:101708008B8AAB0E936E010E76EC14F093688B9A6D
:1017180080D0020E0718D8A411D0080E1218D8A429
:1017280002D0030E12000A0E1218D8A402D0040E1A
:1017380012000D0E1218D8B4C3D76BD0030E0718B9
:10174800D8A406D00D0E1218D8A463D0020E120029
:10175800040E0718D8A410D00C0E1218D8A402D062
:10176800050E12000D0E1218D8B4F0D70E0E12186E
:10177800D8A44FD0060E1200070E0718D8A425D0FB
:101788001250D8A40FD00AC0D9FF0BC0DAFFDF501F
:10179800D8A402D0010E01D0000E0AC0D9FF0BC098
:1017A800DAFF11D01204D8A48BD70CC0D9FF0DC012
:1017B800DAFFDF50D8A402D0010E01D0000E0CC011
:1017C800D9FF0DC0DAFFDF6E69D7080E0718D8A455
:1017D80022D01250D8A40AD01050040F030B0EC008
:1017E800D9FF0FC0DAFFDF6E090E12001204D8A469
:1017F80003D01050030FF2D7020E1218D8A403D04A
:101808001050020FEBD7040E1218D8A492D7102844
:10181800E5D707501200090E0718D8A41ED0080EE5
:101828001218D8A402D00A0E12000A0E1218D8A450
:1018380002D00B0E12000D0E1218D8A4EAD70EC053
:10184800D9FF0FC0DAFFDF50400DF328D5EC1AF0AE
:10185800116E800E116434D727D70A0E0718D8A442
:1018680005D00D0E1218D8B4BFD7D3D70B0E071852
:10187800D8A4CFD70C0E1218D8A402D00C0E120080
:101888000D0E1218D8B4B0D70E0E1218D8A4C1D79E
:101898000D0E1200800EFDEC1AF0070E7C6E7D0E08
:1018A800E82EFED77C2EFCD700F082C001F083C062
:1018B80002F0000E046E050E036E95EC1AF001504E
:1018C80000018025D96E02508121DA6EDF507C6ECE
:1018D8007C50886F896B82C001F083C002F0000ED3
:1018E800046E050E036E95EC1AF080C07CF081C082
:1018F8007DF001507C2602507D22010E7C24D96E99
:10190800000E7D20DA6EDECF0DF0DDCF0EF0030E77
:10191800106EE80E0F6EE0EC16F00DC084F00EC0ED
:1019280085F0030E0A6EE80E096E82C001F083C0CE
:1019380002F0000E046E050E036E95EC1AF080C0DE
:101948007CF081C07DF001507C2602507D22010E82
:101958007C24D96E000E7D20DA6EDECF07F0DDCF55
:1019680008F063EC17F007C00DF008C00EF0000E89
:10197800106E0A0E0F6EE0EC16F00DC086F00EC069
:1019880087F0830E706EFC0E716E88C072F089C08D
:1019980073F084C074F085C075F086C076F087C097
:1019A80077F082EC1AF0C00EFDEC1AF082C001F05C
:1019B80083C002F0000E046E050E036E95EC1AF05B
:1019C80080C07CF081C07DF001507C2602507D22D1
:1019D800030E7C24D96E000E7D20DA6EDF507E6EF9
:1019E8007E500001886F896B9A0E706EFC0E716EC6
:1019F80088C072F089C073F082EC1AF0900EFDEC8A
:101A08001AF082C001F083C002F0000E046E050EC9
:101A1800036E95EC1AF080C07CF081C07DF0015017
:101A28007C2602507D22040E7C24D96E000E7D2077
:101A3800DA6EDF507E6E7E500001886F896BAD0EC6
:101A4800706EFC0E716E88C072F089C073F082EC03
:101A58001AF0D00EFDEC1AF0070E706EFF0E716EC4
:101A680082EC1AF012000001BEAFBF93BEBF05D0D2
:101A7800BE5108E1BD05D8B005D0000E336E010E89
:101A8800326E04D0BDC032F0BEC033F0BBC034F0FB
:101A9800BCC035F022C036F023C037F024C038F07F
:101AA80025C039F026C03AF027C03BF028C03CF0EA
:101AB80029C03DF0000E3F6E1F0E3E6E000EE26F15
:101AC80076D03E06D8A03F06C30E3E24D96E000E3F
:101AD8003F20DA6E36C001F037C002F038C003F09C
:101AE80039C004F03AC005F03BC006F03CC007F02E
:101AF8003DC008F00A0E096E000E0A6E000E0B6E4D
:101B0800000E0C6E000E0D6E000E0E6E000E0F6EA7
:101B1800000E106EA4EC15F001C02AF002C02BF0E4
:101B280003C02CF004C02DF005C02EF006C02FF025
:101B380007C030F008C031F02A50300FDF6E32068F
:101B4800D8A033063406D8A0350636C001F037C011
:101B580002F038C003F039C004F03AC005F03BC0C9
:101B680006F03CC007F03DC008F00A0E096E000EF2
:101B78000A6E000E0B6E000E0C6E000E0D6E000E3F
:101B88000E6E000E0F6E000E106EDDEC14F001C02C
:101B980036F002C037F003C038F004C039F005C091
:101BA8003AF006C03BF007C03CF008C03DF03E509C
:101BB8003F10D8B41BD036503710381039103A10AF
:101BC8003B103C103D10D8A47CD733BE05D0335011
:101BD80002E13204D8B075D735BE08D0355003E1DC
:101BE8003404D8A003D00001BFB36BD720C015F0D0
:101BF80021C016F0C30E3E24176E000E3F20186E4B
:101C080034C019F035C01AF050EC16F015C020F0A9
:101C180016C021F01200026E000E056E000E046E52
:101C2800000E036E000E066E000E076E052A270EC4
:101C3800056404D0000E056E034A042AFA0E00D08B
:101C480000D0E82EFCD70250D8A402D0062801D034
:101C58000604070B066E0150D8A402D0072801D04D
:101C68000704070B076E0650D8A406D08950EA0B64
:101C7800010920D08D9038D00604D8A404D089500A
:101C8800EA0B050917D0020E0618D8A404D089500B
:101C9800EA0B04090FD0030E0618D8A404D0895003
:101CA800EA0B140907D0040E0618D8A405D08950E9
:101CB800EA0B1009896EDED7050E0618D8A404D0E1
:101CC8008950EA0B10090ED0060E0618D8A403D0C6
:101CD8008950EA0B07D0070E0618D8A405D08950FA
:101CE800EA0B0109896E8D800750D8A406D08A5066
:101CF800AB0B040920D08C9038D00704D8A404D0AA
:101D08008A50AB0B140917D0020E0718D8A404D0B8
:101D18008A50AB0B10090FD0030E0718D8A404D0B3
:101D28008A50AB0B500907D0040E0718D8A405D069
:101D38008A50AB0B40098A6EDED7050E0718D8A467
:101D480004D08A50AB0B40090ED0060E0718D8A451
:101D580003D08A50AB0B07D0070E0718D8A405D0BC
:101D68008A50AB0B04098A6E8C80045005E1C50EBD
:101D7800035CD8B012005AD71200000E126E10AED3
:101D880012D0101E0F1E0E1E0D1E0C1E0B1E0A1E3C
:101D9800096C000E0A220B220C220D220E220F22A1
:101DA8001022010E126E08AE12D0081E071E061E63
:101DB800051E041E031E021E016C000E02220322D1
:101DC80004220522062207220822010E121A20EEFA
:101DD80013F0070EDE6AE806FDE209500A100B1040
:101DE8000C100D100E100F101010D8B446D0010EA4
:101DF800116E0AD0D89009360A360B360C360D36D5
:101E08000E360F361036112A10AEF4D7D890133686
:101E18001436153616361736183619361A36095046
:101E2800015C0A5002580B5003580C5004580D50CE
:101E380005580E5006580F50075810500858D8A08B
:101E480011D00950015E0A50025A0B50035A0C5027
:101E5800045A0D50055A0E50065A0F50075A105082
:101E6800085A1380D89010320F320E320D320C32CD
:101E78000B320A320932112EC9D71250D8B410D0F9
:101E88001A1E191E181E171E161E151E141E136C58
:101E9800000E1422152216221722182219221A229D
:101EA80013C001F014C002F015C003F016C004F00E
:101EB80017C005F018C006F019C007F01AC008F0DE
:101EC800120018EC1BF0000E036ED00E026E03EC2D
:101ED8001BF0000E036E000E026E03EC1BF014ECF8
:101EE8001BF018EC1BF0000E036ED10E026E03EC13
:101EF8001BF0000E7E6E7E507C24D96E000E7D2075
:101F0800DA6E000EA8EC1AF0DF6E7E2A050E7E64EB
:101F1800F2D720EE06F07C50D9267D50DA22010E49
:101F2800A8EC1AF0DF6E14EC1BF0800EFDEC1AF032
:101F3800070E0001806F7D0EE82EFED7802FFCD79C
:101F48004B0E706EFF0E716E82EC1AF0C00EFDEC37
:101F58001AF0550E706EFC0E716E20EE06F07C5075
:101F6800D9267D50DA22DF500001806F8051726ED1
:101F7800736A20EE05F07C50D9267D50DA22DF50B6
:101F8800816F8151746E756A20EE04F07C50D926F9
:101F98007D50DA22DF50826F8251766E776A82EC4A
:101FA8001AF0900EFDEC1AF06C0E706EFC0E716E4D
:101FB80020EE02F07C50D9267D50DA22DF50000155
:101FC800806F8051726E736A20EE01F07C50D926C2
:101FD8007D50DA22DF50816F8151746E756A7CC042
:101FE800D9FF7DC0DAFFDF50826F8251766E776A43
:101FF80082EC1AF0D00EFDEC1AF08F0E706EFF0E08
:10200800716E82EC1AF0120020EEE9F010EE13F077
:10201800060EDBCFE3FFE806FCE210C01EF011C09D
:102028001FF01E501F10D8A404D0130E1E6E000EF1
:102038001F6E1EC001F01FC002F06DEC19F001C048
:1020480022F002C023F0BDC020F0BEC021F021BEA6
:102058000ED02250205C2150800A126E2350800A34
:102068001258D8B004D020C022F021C023F022C0DA
:1020780020F023C021F0BBC01CF0BCC01DF0000143
:10208800BFA10DD016D0000E066E200E056E0EC034
:1020980007F00FC008F0D2EC17F0224A232A1C5090
:1020A800225C2350800A126E1D50800A1258D8A054
:1020B800EAD7000E1B6E000E1A6E1FD01EC0F6FF68
:1020C8001FC0F7FF000EF86E0F0EF76403D008006C
:1020D800F55005D0F6CFE1FFF7CFE2FFE750126EDB
:1020E8001250056E066A0EC007F00FC008F0D2EC59
:1020F80017F01E4A1F2A1A4A1B2A20501A5C1B5026
:10210800800A126E2150800A1258D8A0D7D7000131
:10211800BFB10DD016D0000E066E200E056E0EC093
:1021280007F00FC008F0D2EC17F0224A232A1C50FF
:10213800225C2350800A126E1D50800A1258D8A0C3
:10214800EAD722C00EF023C00FF01200000E166E60
:10215800000E156E000E0F6E000E0E6E02D0084AAD
:10216800092A010E146E08C0F6FF09C0F7FF08001F
:10217800F550200AD8B418D0F70E0A6EFF0E0B6E71
:1021880008C0F6FF09C0F7FF0800F5500C6E0D6A8D
:102198000A500C260B500D220D5004E1050E0C5C64
:1021A800D8A002D0000E146E14C010F0116A10509E
:1021B8001110D8B408D0D3D7000E0F6E010E0E6ED2
:1021C800084A092A2ED008C0F6FF09C0F7FF080000
:1021D800F5500A6E0B6A0B50000AD8A422D00A5098
:1021E8002B0AD8B4EDD7060AD8B4E6D71AD015C04A
:1021F80001F016C002F0000E046E0A0E036E95EC94
:102208001AF008C0F6FF09C0F7FF0800F550015E94
:10221800000E025A300E0124156E000E0220166EB2
:10222800CFD7D00E0A6EFF0E0B6E08C0F6FF09C09E
:10223800F7FF0800F5500C6E0D6A0A500C260B507B
:102248000D220D5006E10A0E0C5CD8B002D0010E2A
:1022580001D0000E126E136A12501310D8A4C7D7FB
:102268000E500F10D8A40DD015C00AF016C00BF0F0
:102278000A1E0B1E0A4A0B2A0AC008F00BC009F0F6
:10228800120015C008F016C009F012000D6E000EFD
:102298000F6E07C0D9FF08C0DAFFDF50096E0928A2
:1022A800030B0E6E07C0D9FF08C0DAFF0EC0DFFFB0
:1022B80007C0D9FF08C0DAFFDF50016E3F0E45ECBA
:1022C8001AF00E50400DF3CF10F00DC001F0105071
:1022D80045EC1AF0102A03C001F0105045EC1AF032
:1022E800102A04C001F0105045EC1AF0102A0350CF
:1022F8000F5CD8A004D00F0E0F6001D012000F5051
:10230800050D05C009F006C00AF0F3500926F4507F
:102318000A22010E0924D96E000E0A20DA6EDECFD9
:102328000BF0DDCF0CF00CC00BF00C6A0BBE0C6888
:102338000B50016E105045EC1AF0102A0F50050D85
:1023480005C009F006C00AF0F3500926F4500A2225
:10235800010E0924D96E000E0A20DA6EDF50016ED4
:10236800105045EC1AF0102A0F50050D05C009F061
:1023780006C00AF0F3500926F4500A22030E092475
:10238800D96E000E0A20DA6EDF50016E105045EC4F
:102398001AF0102A0F50050D05C009F006C00AF002
:1023A800F3500926F4500A22040E0924D96E000EAF
:1023B8000A20DA6EDF50016E105045EC1AF0102A30
:1023C8000F2A95D7000E126E08AE12D0081E071EEF
:1023D800061E051E041E031E021E016C000E0222AC
:1023E800032204220522062207220822010E126E69
:1023F80010AE10D0101E0F1E0E1E0D1E0C1E0B1E32
:102408000A1E096C000E0A220B220C220D220E2233
:102418000F22102209500A100B100C100D100E106C
:102428000F101010D8B43CD0010E116E0AD0D890FD
:1024380009360A360B360C360D360E360F36103680
:10244800112A10AEF4D70950015C0A5002580B50FB
:1024580003580C5004580D5005580E5006580F508C
:10246800075810500858D8A010D00950015E0A50DB
:10247800025A0B50035A0C50045A0D50055A0E506C
:10248800065A0F50075A1050085AD89010320F3277
:102498000E320D320C320B320A320932112ED3D7DA
:1024A8001250D8B410D0081E071E061E051E041EA2
:1024B800031E021E016C000E0222032204220522C2
:1024C80006220722082201C001F002C002F003C060
:1024D80003F004C004F005C005F006C006F007C00C
:1024E80007F008C008F012007D6E7D50400DF328FB
:1024F800D5EC1AF07C6E800E7C6436D0800EFDEC34
:102508001AF0070E7C6E7D0EE82EFED77C2EFCD7C7
:1025180000F0C00E706EFC0E716E82EC1AF0C00EE8
:10252800FDEC1AF0E40E706EFC0E716E82EC1AF07F
:10253800900EFDEC1AF0D20E706EFC0E716E7D508E
:10254800400DF328D5EC1AF07C6E7C50726E736ADD
:1025580082EC1AF0D00EFDEC1AF0D40E706EFE0E5E
:10256800716E82EC1AF01200800EFDEC1AF0070E64
:102578007C6E7D0EE82EFED77C2EFCD700F0A00ED8
:10258800706EFF0E716E7D50400DF350D5EC1AF051
:102598007C6E7C50726E736A82EC1AF0C00EFDEC91
:1025A8001AF0F60E706EFC0E716E7D50400DF350F1
:1025B800020FD5EC1AF07C6E7C50726E736A82EC56
:1025C8001AF0900EFDEC1AF0080E706EFD0E716E8A
:1025D8007D50400DF328D5EC1AF07C6E7C50726E5D
:1025E800736A82EC1AF0D00EFDEC1AF0D40E706EFD
:1025F800FE0E716E82EC1AF012007D6E800EFDECFC
:102608001AF0070E7C6E7D0EE82EFED77C2EFCD7C6
:1026180000F03C0E706EFD0E716E82EC1AF0C00E6A
:10262800FDEC1AF03C0E706EFD0E716E82EC1AF025
:102638007D50D8A413D0900EFDEC1AF03C0E706EAD
:10264800FD0E716E82EC1AF0D00EFDEC1AF0190E28
:10265800706EFE0E716E82EC1AF012007D04D8A422
:1026680013D0900EFDEC1AF0800E706EFD0E716E98
:1026780082EC1AF0D00EFDEC1AF0290E706EFF0EE7
:10268800716E82EC1AF01200020E7D18D8A413D0D5
:10269800900EFDEC1AF06F0E706EFD0E716E82ECEE
:1026A8001AF0D00EFDEC1AF07E0E706EFF0E716EF1
:1026B80082EC1AF01200030E7D18D8A413D0900EE5
:1026C800FDEC1AF0D50E706EFD0E716E82EC1AF0EC
:1026D800D00EFDEC1AF06D0E706EFF0E716E82EC6E
:1026E8001AF01200900EFDEC1AF0A20E706EFD0E9C
:1026F800716E82EC1AF0D00EFDEC1AF03A0E706E84
:10270800FF0E716E82EC1AF01200056E000E076E55
:10271800010E066E0550D8A410D00728070B076EC7
:10272800062A630E066419D001C0D9FF02C0DAFF79
:10273800DE2A000EDD22000E0FD00704070B076EFD
:1027480006060650D8A409D001C0D9FF02C0DAFF96
:10275800DE06000EDD5A640E066EFA0E00D000D0BA
:10276800E82EFCD70750D8A406D08950EA0B0109F7
:1027780020D08D9038D00704D8A404D08950EA0B13
:10278800050917D0020E0718D8A404D08950EA0BFF
:1027980004090FD0030E0718D8A404D08950EA0BF7
:1027A800140907D0040E0718D8A405D08950EA0BDD
:1027B8001009896EDED7050E0718D8A404D08950F1
:1027C800EA0B10090ED0060E0718D8A403D08950BA
:1027D800EA0B07D0070E0718D8A405D08950EA0BD2
:1027E8000109896E8D8003C0D9FF04C0DAFFDF506C
:1027F800D8B490D78150F10B310AD8B48BD7815017
:10280800F10B310AD8A41200FAD77D6E7D50400D25
:10281800F328D5EC1AF07C6E800E7C6436D0800EDE
:10282800FDEC1AF0070E7C6E7D0EE82EFED77C2E8E
:10283800FCD700F0C00E706EFC0E716E82EC1AF0C0
:10284800C00EFDEC1AF0E40E706EFC0E716E82EC98
:102858001AF0900EFDEC1AF0D20E706EFC0E716E2E
:102868007D50400DF328D5EC1AF07C6E7C50726ECA
:10287800736A82EC1AF0D00EFDEC1AF0D40E706E6A
:10288800FE0E716E82EC1AF01200800EFDEC1AF04A
:10289800070E7C6E7D0EE82EFED77C2EFCD700F04E
:1028A800F60E706EFE0E716E82EC1AF0C00EFDEC24
:1028B8001AF0F70E706EFD0E716E82EC1AF0900E23
:1028C800FDEC1AF0080E706EFE0E716E82EC1AF0B6
:1028D800D00EFDEC1AF0C30E706EFE0E716E82EC17
:1028E8001AF01200016E000E046E000E036E000E48
:1028F800026E000E056E042A270E046404D0000E32
:10290800046E024A032AFA0E00D000D0E82EFCD743
:102918000150D8A402D0052801D00504070B056E84
:102928000550D8A406D08A50AB0B040920D08C904F
:1029380038D00504D8A404D08A50AB0B140917D09A
:10294800020E0518D8A404D08A50AB0B10090FD07A
:10295800030E0518D8A404D08A50AB0B500907D031
:10296800040E0518D8A405D08A50AB0B40098A6E0E
:10297800DED7050E0518D8A404D08A50AB0B400941
:102988000ED0060E0518D8A403D08A50AB0B07D07A
:10299800070E0518D8A405D08A50AB0B04098A6E17
:1029A8008C80035005E1C50E025CD8B01200A3D795
:1029B800120020EE11F0070EDE6AE806FDE209506B
:1029C8000A100B100C100D100E100F101010D8B4A8
:1029D80046D0010E196E0AD0D89009360A360B3641
:1029E8000C360D360E360F361036192A10AEF4D7BF
:1029F800D890113612361336143615361636173661
:102A080018360950015C0A5002580B5003580C50F4
:102A180004580D5005580E5006580F5007581050BE
:102A28000858D8A011D00950015E0A50025A0B501C
:102A3800035A0C50045A0D50055A0E50065A0F509E
:102A4800075A1050085A1180D89010320F320E329F
:102A58000D320C320B320A320932192EC9D711C085
:102A680001F012C002F013C003F014C004F015C046
:102A780005F016C006F017C007F018C008F01200DD
:102A8800016E000E036E000E026E000E046E032A25
:102A9800270E036403D0000E036E022AFA0E00D03C
:102AA80000D0E82EFCD70150D8A402D0042801D0C9
:102AB8000404070B046E0450D8A406D08950EA0B0E
:102AC800010920D08D9038D00404D8A404D08950AE
:102AD800EA0B050917D0020E0418D8A404D08950AF
:102AE800EA0B04090FD0030E0418D8A404D08950A7
:102AF800EA0B140907D0040E0418D8A405D089508D
:102B0800EA0B1009896EDED7050E0418D8A404D084
:102B18008950EA0B10090ED0060E0418D8A403D069
:102B28008950EA0B07D0070E0418D8A405D089509D
:102B3800EA0B0109896E8D80C40E0264A8D71200C1
:102B480009500A100B100C100D100E100F10101059
:102B5800D8B43CD0010E116E0AD0D89009360A3686
:102B68000B360C360D360E360F361036112A10AECF
:102B7800F4D70950015C0A5002580B5003580C5006
:102B880004580D5005580E5006580F50075810504D
:102B98000858D8A010D00950015E0A50025A0B50AC
:102BA800035A0C50045A0D50055A0E50065A0F502D
:102BB800075A1050085AD89010320F320E320D3280
:102BC8000C320B320A320932112ED3D701C001F070
:102BD80002C002F003C003F004C004F005C005F011
:102BE80006C006F007C007F008C008F0120020EE83
:102BF80002F00150D9260250DA2210EE02F00150FC
:102C0800E1260250E222E750036E0F0E031610EE83
:102C180002F00150E1260250E222E750046E043827
:102C28000F0B0A0DF3500324DF6E20EE01F0015064
:102C3800D9260250DA2210EE01F00150E1260250A6
:102C4800E222E750036E0F0E031610EE01F001505A
:102C5800E1260250E222E750046E04380F0B0A0DF9
:102C6800F3500324DF6E01C0D9FF02C0DAFFDF5042
:102C7800036E0F0E031601C0D9FF02C0DAFFDF5042
:102C8800046E04380F0B0A0DF350032401C0D9FF5A
:102C980002C0DAFFDF6E12000001BFA10AD017C020
:102CA8000EF018C00FF015C010F016C011F0AEEC01
:102CB80019F01ABE05D019C01EF01AC01FF004D0B2
:102CC800000E1F6E000E1E6E000E1D6E000E1C6E96
:102CD8000CD0000E066E200E056E15C007F016C04B
:102CE80008F0D2EC17F01C4A1D2A1E501C5C1D501F
:102CF800800A1B6E1F50800A1B58D8A0EAD7000113
:102D0800BFB10AD017C00EF018C00FF015C010F0F0
:102D180016C011F0AEEC19F017C001F018C002F09F
:102D28006DEC19F01E500124156E1F500220166E0E
:102D380012000001806F800EFDEC1AF0070E7E6E07
:102D48007D0EE82EFED77E2EFCD700F01A0E706E90
:102D5800FD0E716E82EC1AF0C00EFDEC1AF0000147
:102D68008005D8B404D0F00E816FFF0E03D0F50EA5
:102D7800816FFF0E826FD10E706EFF0E716E81C073
:102D880072F082C073F082EC1AF0900EFDEC1AF02B
:102D9800FA0E706EFF0E716E7CC072F07DC073F01B
:102DA80082EC1AF0D00EFDEC1AF02B0E706EFD0EB0
:102DB800716E82EC1AF01200000E126E10AE06D080
:102DC8000F6C101ED8B0102A010E126E0EAE06D06F
:102DD8000D6C0E1ED8B00E2A010E121A000E146EBB
:102DE800000E136E0F501010D8B41CD0010E116EC7
:102DF80004D0D8900F361036112A10AEFAD7D890D2
:102E0800133614360F500D5C10500E58D8A005D04C
:102E18000F500D5E10500E5A1380D89010320F329A
:102E2800112EEDD71250D8B404D0136C141ED8B09C
:102E3800142A13C00DF014C00EF01200000E096E13
:102E4800000E0A6E000E0B6E000E0C6E055006107A
:102E580007100810D8B42AD0010E0D6E06D0D890ED
:102E680005360636073608360D2A08AEF8D7D89044
:102E780009360A360B360C360550015C06500258E6
:102E88000750035808500458D8A009D00550015ECF
:102E98000650025A0750035A0850045A0980D8901D
:102EA80008320732063205320D2EE1D709C001F08B
:102EB8000AC002F00BC003F00CC004F01200000EB0
:102EC8000C6E08AE06D0076C081ED8B0082A010E92
:102ED8000C6E0AAE04D0096C0A1ED8B00A2A095032
:102EE8000A10D8B418D0010E0B6E04D0D890093649
:102EF8000A360B2A0AAEFAD70950075C0A50085856
:102F0800D8A004D00950075E0A50085AD8900A324F
:102F180009320B2EF1D70C50D8B404D0076C081E18
:102F2800D8B0082A07C007F008C008F01200800EC1
:102F3800FDEC1AF0070E7C6E7D0EE82EFED77C2E77
:102F4800FCD700F0A00E706EFF0E716E80C072F09C
:102F580081C073F082EC1AF0C00EFDEC1AF0F60E88
:102F6800706EFC0E716E82C072F0736A82EC1AF099
:102F7800900EFDEC1AF0080E706EFD0E716E83C097
:102F880072F0736A82EC1AF0D00EFDEC1AF0D40ECF
:102F9800706EFE0E716E82EC1AF012000750081067
:102FA800D8B404D007500810D8A404D00550F7ECC2
:102FB8001AF0120020EE04F00750D9260850DA2241
:102FC800DE50DE10D8B416D020EE04F00750D92613
:102FD8000850DA2210EE02F00750E1260850E222EB
:102FE800DE50E65CE650800A0D6EDE50800A0D5811
:102FF800D8B0120020EE02F00750D9260850DA2285
:10300800DE2A000EDD221200310E056EB20EE82E09
:10301800FED7052EFCD700D08C94030ECAEC1AF00C
:10302800110E056E3A0EE82EFED7052EFCD700D0FD
:10303800030ECAEC1AF07D0EE82EFED7320EE8EC2D
:103048001AF0280EE8EC1AF0080EE8EC1AF0010E57
:10305800E8EC1AF0110E056E3A0EE82EFED7052E92
:10306800FCD700D0060EE8EC1AF00F0EFDEC1AF0B3
:10307800120018EC1BF0000E036ED00E026E03EC6B
:103088001BF0000E036E000E026E03EC1BF014EC36
:103098001BF018EC1BF0000E036ED10E026E03EC51
:1030A8001BF0000E066E06500424D96E000E052093
:1030B800DA6E000EA8EC1AF0DF6E062A010E06641E
:1030C800F2D720EE02F00450D9260550DA22010E7C
:1030D800A8EC1AF0DF6E14EC1BF01200C69A948666
:1030E8009488800E016E960E026E980E036E000E86
:1030F800046E0EC012F00FC013F010C014F011C00F
:1031080015F0020ED8901236133614361536E82EFE
:10311800F9D712C005F013C006F014C007F015C0A7
:1031280008F022EC17F00104C86E800EC76E280E56
:10313800C66E000EC56E1200800EFDEC1AF0070E6A
:103148007C6E7D0EE82EFED77C2EFCD700F0E50EB7
:10315800706EFE0E716E82EC1AF0C00EFDEC1AF065
:10316800F70E706EFD0E716E82EC1AF0900EFDEC8B
:103178001AF0080E706EFE0E716E82EC1AF0D00E08
:10318800FDEC1AF0C30E706EFE0E716E82EC1AF032
:103198001200800EFDEC1AF0070E7C6E7D0EE82EF4
:1031A800FED77C2EFCD700F05C0E706EFF0E716EA1
:1031B80082EC1AF0C00EFDEC1AF0B20E706EFE0E24
:1031C800716E82EC1AF0900EFDEC1AF0180E706E0B
:1031D800FF0E716E82EC1AF0D00EFDEC1AF0C30EE1
:1031E800706EFE0E716E82EC1AF012006AC06EF0FC
:1031F8006BC06FF0000E0001BA6F000EB96F13D0EC
:1032080068C047F069C048F06E0E496E000E4A6EFD
:103218006CC04BF06DC04CF02AEC04F04750000134
:10322800B9274850BA236EC0F6FF6FC0F7FF0800F1
:10323800F5500009D8A4E4D7B9C068F0BAC069F05D
:1032480012009F0E096EFF0E0A6E07C00BF008C031
:103258000CF009500B260A500C220C5006E11A0EED
:103268000B5CD8B002D0010E01D0000E0D6E0E6AB4
:103278000D500E10D8B405D05F0E0714076E086AFB
:10328800120007C007F008C008F01200100EF66E12
:10329800360EF76E000EF86E00EEE9F010EE08F04C
:1032A8000900F5CFEEFFE550E150FAE101EE00F03C
:1032B8004B0EEE6AE806FDE100EEB9F0300EEE6A5C
:1032C800E806FDE17F907F92000EF86E000186EF20
:1032D80006F001C003F002C004F002D0014A022A3D
:1032E80001C0F6FF02C0F7FF000EF86E0F0EF7647C
:1032F80003D00800F55005D0F6CFE1FFF7CFE2FF85
:10330800E7500009D8A4EAD70350015C016E0450C5
:103318000258026E1200010E076E200E01180210EC
:10332800D8B414D0F70E036EFF0E046E01C005F07A
:1033380002C006F00350052604500622065004E198
:10334800050E055CD8A002D0000E076E07C001F07C
:10335800026A1200000E146E000E136E0BD012C01B
:1033680005F0066A10C007F011C008F0D2EC17F09B
:10337800134A142A13500E24D96E14500F20DA6EF3
:10338800DF50126E1250D8B41200E9D79F0E036EA8
:10339800FF0E046E200E0110056E000E0210066E60
:1033A8000350052604500622065006E11A0E055C55
:1033B800D8B002D0010E01D0000E016E026A1200D0
:1033C80014BE05D0145010E11304D8B00DD013C0AA
:1033D80015F014C016F0151E161E154A162A15C02B
:1033E80013F016C014F0120013C013F014C014F038
:1033F80012009F0E036EFF0E046E01C005F002C09E
:1034080006F00350052604500622065006E11A0E5F
:10341800055CD8B002D0010E01D0000E016E026A20
:103428001200BF0E036EFF0E046E01C005F002C04D
:1034380006F00350052604500622065006E11A0E2F
:10344800055CD8B002D0010E01D0000E016E026AF0
:103458001200D00E036EFF0E046E01C005F002C00C
:1034680006F00350052604500622065006E10A0E0F
:10347800055CD8B002D0010E01D0000E016E026AC0
:103488001200026EA6B2FED7A68402C0A9FF01C030
:10349800A8FFA69EA69CF29E550EA76EAA0EA76E22
:1034A800A682F28EA6B2FED7A6941200000EF2BE35
:1034B800010E016EF29E8C86140EE82EFED700D007
:1034C8008C96530EE82EFED700F001B002D0F29E83
:1034D80001D0F28E1200096E0950D8B41200090406
:1034E800D8A409D00850D8A403D010EC1BF01200BF
:1034F8000CEC1BF01200F1EC1AF01200720E7A6E4E
:10350800000E7B6E000E686E000E696E70C06AF069
:1035180071C06BF07A0E6C6E000E6D6EFAEC18F0DE
:10352800120001500302F3CF05F0F4CF06F001506A
:103538000402F350062602500302F350062605C083
:1035480001F006C002F01200026EDFEC1AF0C58628
:10355800DFEC1AF0C9CF03F0DFEC1AF002B002D0AA
:10356800C59A01D0C58AC588035012000600F0A08C
:1035780005D0010E0001E86FF09006D0F2A204D049
:10358800010E0001E76FF2927F921100026E8C50DB
:103598000F0B8C6E0238F00B8C108C6E5AEC1AF0F4
:1035A8001200016EA6B2FED701C0A9FFA69EA69C76
:1035B800A680A8501200C7B4FED7C5CF01F01F0ED1
:1035C8000116D8B41200F7D7036E03380F0BCAECF4
:1035D8001AF00350CAEC1AF01200000E016E010E28
:1035E8000FEC0EF01200046E8C840450E8EC1AF014
:1035F8001200046E8C940450E8EC1AF01200DFEC10
:103608001AF002C0C9FF1200286E756C6C290003FD
:10361800000E76EC14F01200010E44EC15F01200C6
:10362800DFEC1AF0C5841200DFEC1AF0C580120036
:10FC4E000050104000041020202020253032782F44
:10FC5E00253032782F2530327820202020002020A9
:10FC6E002020253032783A253032783A25303278D5
:10FC7E002020202000504F4C4525317820504F53E6
:10FC8E003A202531642E253032646D005449524598
:10FC9E005320535550503A202020253164200054D3
:10FCAE0049524553204F4E20504F4C453A25316412
:10FCBE0020002020202020204552524F522020206C
:10FCCE002020200020202020202053544F52454435
:10FCDE00202020202000204E4F2020494E464F52FB
:10FCEE004D4154494F4E20005449524553205355CF
:10FCFE0050503A20202532642000504F4C4520436E
:10FD0E004F554E543A20202532642000205354453E
:10FD1E005050455220204D4F544F522000313A53EF
:10FD2E0057495443482020443A53544F5000202002
:10FD3E0020202020202020202020202020200020D5
:10FD4E002020204445544543544544202020200083
:10FD5E00202020204E4F20504F4C45532020202055
:10FD6E0000202020504F4C4520464F554E44202019
:10FD7E0020002020204241534520464F554E44201E
:10FD8E002020002020544849532052554E204841EF
:10FD9E004420200020204D41582044495354414EC8
:10FDAE004345202000202020494E2050524F4752DC
:10FDBE00455353202000202049532043555252458D
:10FDCE004E544C5920200020544952455320204176
:10FDDE0052524956454420002020544845204F5049
:10FDEE0045524154494F4E2000373A2047454E4523
:10FDFE0052414C20494E464F2000393A20504F4C2C
:10FE0E00452044455441494C532000204920414D42
:10FE1E0020474F494E47204F555420002120202087
:10FE2E0044455445435445442020202100212020A0
:10FE3E00544849532020504F4C452020210021206A
:10FE4E005449524553204F4E204954202021002121
:10FE5E00205355434345535346554C4C592021008E
:10FE6E00212048415320544F4F204D414E592021BF
:10FE7E0000212121212120504F4C452021212121DB
:10FE8E002100212121212121212121212121212175
:10FE9E0021210021212121214552524F5221212180
:10FEAE0021212100544F2053454520282031202D5B
:10FEBE0020342029002D2D2D2D2D303A444F4E4526
:10FECE002D2D2D2D2D002D2D2D2D2D303A4D454E18
:10FEDE00552D2D2D2D2D002D2D52554E20434F4D90
:10FEEE00504C4554452D2D002D2D53484F57494EFE
:10FEFE004720204C4F472D2D003C2A202020303A01
:10FF0E004D454E55202020233E00313A4E45572078
:10FF1E002020202020343A4F4C44004C4F4F4B4968
:10FF2E004E4720464F5220504F4C45004920414DE0
:10FF3E0020434F4D494E4720484F4D4500544541B3
:10FF4E004D20333120202020205449524500434873
:10FF5E004F4F5345205748494348204C4F47004D7B
:10FF6E004F56494E47202B2052414D5020494E00AE
:10FF7E004445504C4F59494E472020544952455301
:10FF8E0000303A5354415254202020383A4C4F47B7
:10FF9E005300544F54414C2054494D453A2025337B
:10FFAE0064730041204449522025732020202020D4
:10FFBE00202000422044495220257320202020205A
:10FFCE002020002052554E4E494E47204449522083
:10FFDE002573002530357520202020202025303532
:10FFEE0075004357200000434357000025313678F3
:02FFFE00000001
:020000040020DA
:08000000FFFFFFFFFFFFFFFF00
:020000040030CA
:0E000000FF021F1EFF8381FF0F400FE00F4025
:00000001FF
