:020000040000FA
:0400000007EF00F016
:100008007F82ECED0CF084EF0CF049C0D9FF4AC0B8
:10001800DAFFDECFF6FFDDCFF7FF0800F550250A3F
:10002800D8A4B1D149C0D9FF4AC0DAFFDE2A000EF0
:10003800DD22000E0001836F000E826F82C086F001
:1000480083C087F084698569000E626E000E19D03E
:100058000001868149C0D9FF4AC0DAFFDE2A000EB6
:10006800DD2232D000018683F5D700018685F2D7DC
:1000780000018687EFD700018689ECD7000E626EF3
:10008800010E616E21D049C0D9FF4AC0DAFFDECF28
:10009800F6FFDDCFF7FF0800F5504D6E4E6A4E5063
:1000A800000AD8A4EBD74D50200AD8B4E1D7030AE8
:1000B800D8B4E1D7080AD8B4D8D7060AD8B4C8D76C
:1000C8001D0AD8B4CFD7DAD761506210D8B4DBD7BD
:1000D800000186B1869349C0D9FF4AC0DAFFDECF56
:1000E800F6FFDDCFF7FF0800F5502A0AD8A423D081
:1000F80049C0D9FF4AC0DAFFDE2A000EDD224BC014
:10010800D9FF4CC0DAFFDFCF4DF0020EDE26DFCF7D
:100118004EF0000EDD224DC0D9FF4EC0DAFFDECF13
:1001280082F0DDCF83F083AF3FD08681826D831F5D
:10013800D8B0832B39D049C0D9FF4AC0DAFFDECF07
:1001480008F0DDCF09F081EC07F008C082F009C0A3
:1001580083F007D049C0D9FF4AC0DAFFDE2A000E73
:10016800DD22D00E4D6EFF0E4E6E49C0D9FF4AC03B
:10017800DAFFDECFF6FFDDCFF7FF0800F5504F6E50
:10018800506A4D504F264E505022505006E10A0EEC
:100198004F5CD8B002D0010E01D0000E636E646AC5
:1001A80063506410D8A4D6D749C0D9FF4AC0DAFF33
:1001B800DECFF6FFDDCFF7FF0800F550640AD8B4AC
:1001C8000DD049C0D9FF4AC0DAFFDECFF6FFDDCF38
:1001D800F7FF0800F550690AD8A43FD049C0D9FFF5
:1001E8004AC0DAFFDE2A000EDD224BC0D9FF4CC020
:1001F800DAFFDFCF4DF0020EDE26DFCF4EF0000E25
:10020800DD224DC0D9FF4EC0DAFFDECF51F0DDCF81
:1002180052F0000E52BEFF0E536E546E556E566E5F
:10022800576E586E47C020F048C021F051C022F0E8
:1002380052C023F053C024F054C025F055C026F016
:1002480056C027F057C028F058C029F01EEC03F01C
:1002580020C047F021C048F0120049C0D9FF4AC069
:10026800DAFFDECFF6FFDDCFF7FF0800F550780A9A
:10027800D8B40DD049C0D9FF4AC0DAFFDECFF6FFA7
:10028800DDCFF7FF0800F550580AD8A44DD049C073
:10029800D9FF4AC0DAFFDECFF6FFDDCFF7FF08004F
:1002A800F5CF65F049C0D9FF4AC0DAFFDE2A000E53
:1002B800DD224BC0D9FF4CC0DAFFDFCF4DF0020E74
:1002C800DE26DFCF4EF0000EDD224DC0D9FF4EC036
:1002D800DAFFDECF4FF0DDCF50F04FC059F050C0FD
:1002E8005AF05B6A5C6A5D6A5E6A5F6A606A47C008
:1002F80020F048C021F059C022F05AC023F05BC05A
:1003080024F05CC025F05DC026F05EC027F05FC019
:1003180028F060C029F065C02AF041EC04F020C044
:1003280047F021C048F0120049C0D9FF4AC0DAFF9F
:10033800DECFF6FFDDCFF7FF0800F550250AD8A479
:1003480016D049C0D9FF4AC0DAFFDE2A000EDD22E6
:10035800000E066E250E056E47C007F048C008F06F
:1003680059EC0AF0000E486E010E476E120049C0A3
:10037800D9FF4AC0DAFFDE2A000EDD22000E486EE1
:10038800000E476E120049C0D9FF4AC0DAFFDECF1F
:10039800F6FFDDCFF7FF0800F550056E066A47C087
:1003A80007F048C008F059EC0AF049C0D9FF4AC024
:1003B800DAFFDE2A000EDD22D5D7000E8C6E000E85
:1003C800956E0F0EC16EF086F28E8FEC0AF0A00EBD
:1003D8000E6E860E0F6E010E106E000E116EF9EC89
:1003E8000AF0000E0001C96F000EC86F000EC46F3E
:1003F800000EC36F010E0101006F010E026F020EA5
:10040800016F010E036F020E046F020E056F010EDD
:10041800076F1D0E066F000E086F010E096F030EA1
:100428000A6F020E0C6F2E0E0B6F020E0D6F020E6E
:100438000E6F040E0F6F040E116F0E0E106F000E6C
:10044800126F020E136F040E00018B6F00018D51A5
:10045800D8B479D0000E8D6F81380F0B0F0BC76F92
:100468000D0EC719D8A429D0C851C911D8A425D0B0
:10047800B90E046E000E056EC4EC0AF0000E000101
:10048800C66F000EC56FB90EC525D96E000EC62100
:10049800DA6EC00EC525E16E000EC621E26EDFCF12
:1004A800E7FFC54BC62BC65104E1030EC55DD8A0B6
:1004B800EAD7000EC96F010E45D0C805C911D8A4E6
:1004C80004D0000EC96F020E3DD0020EC819C91122
:1004D800D8A416D0C751D8A404D0000EC96F030EF3
:1004E80031D0C705D8A404D0000EC96F040E2AD095
:1004F8000D0EC719D8A427D0000EC96F000E22D040
:10050800030EC819C911D8A405D00D0EC719D8B43F
:10051800D8D719D0040EC819C911D8A414D00C0EF4
:10052800C719D8A404D0000EC96F050E0BD00D0E44
:10053800C719D8B4C6D70E0EC719D8A404D0000E50
:10054800C96F060EC86FC851C911D8A413D00A0EB6
:10055800C319C411D8A40BD0B90E7A6E000E7B6EE5
:10056800DEEC06F0000E0001C46F000EC36FC34B33
:10057800C42B52D0C805C911D8A40CD0C00E7A6EAD
:10058800000E7B6EB3EC08F0000E0001C96F020E7E
:10059800C86F42D0020EC819C911D8A406D027ECDA
:1005A8000BF0000E00018A6F37D0030EC819C9116D
:1005B800D8A40BD0000E7B6E000E7A6E000E7C6EF7
:1005C8008BC07DF022EC0AF027D0040EC819C9119F
:1005D800D8A40AD0000E7A6E010E7B6E8AC07CF019
:1005E8007D6A59EC05F018D0050EC819C911D8A4B0
:1005F80008D08A51D8A48A07000EC96F040EC86FA4
:10060800E9D7060EC819C911D8A406D08B518A5D3E
:10061800D8B0F2D78A2BF0D7020E0001B86F450E7A
:10062800B76FA90EE82EFED7B72FFCD7B82FFAD789
:1006380000D00CD722C03AF023C03BF024C03CF0D5
:1006480025C03DF026C03EF027C03FF028C040F04E
:1006580029C041F041AE02D0010E01D0000E386E23
:10066800396A38503910D8B410D0411E401E3F1E88
:100678003E1E3D1E3C1E3B1E3A6C000E3B223C2299
:100688003D223E223F2240224122000185AF86932F
:1006980085BF05D0855108E18405D8B005D0000E86
:1006A800356E010E346E04D084C034F085C035F048
:1006B80082C036F083C037F038503910D8A402D041
:1006C80086A503D03606D8A03706000E436E1F0E47
:1006D800426E000EAD6F7CD04206D8A043068E0E47
:1006E8004224D96E000E4320DA6E3AC001F03BC0B6
:1006F80002F03CC003F03DC004F03EC005F03FC02E
:1007080006F040C007F041C008F00A0E096E000E5E
:100718000A6E000E0B6E000E0C6E000E0D6E000EB3
:100728000E6E000E0F6E000E106E21EC08F001C068
:100738002AF002C02BF003C02CF004C02DF005C035
:100748002EF006C02FF007C030F008C031F02AC0E4
:1007580013F02CC014F0F9EC0BF01350300FDF6ECF
:100768003406D8A035063606D8A037063AC001F0B8
:100778003BC002F03CC003F03DC004F03EC005F0B1
:100788003FC006F040C007F041C008F00A0E096EED
:10079800000E0A6E000E0B6E000E0C6E000E0D6E33
:1007A800000E0E6E000E0F6E000E106E3AEC06F084
:1007B80001C03AF002C03BF003C03CF004C03DF079
:1007C80005C03EF006C03FF007C040F008C041F049
:1007D80043BE20D0435003E14204D8A01BD03A5076
:1007E8003B103C103D103E103F1040104110D8A463
:1007F80073D735BE05D0355002E13404D8B06CD774
:1008080037BE08D0375003E13604D8A003D0000122
:1008180086B362D738503910D8A403D0000186A512
:1008280017D04206D8A0430638503910D8A404D0AF
:10083800000E336E2B0E03D0000E336E2D0E326E6B
:100848008E0E4224D96E000E4320DA6E32C0DFFFCE
:1008580020C015F021C016F08E0E4224176E000E2F
:100868004320186E36C019F037C01AF01AEC09F098
:1008780015C020F016C021F01200000185AF869344
:1008880085BF05D0855108E18405D8B005D0000E94
:10089800386E010E376E04D084C037F085C038F04A
:1008A80082C039F083C03AF086A904D0FE0E3926FA
:1008B800FF0E3A2222C03BF023C03CF024C03DF09A
:1008C80025C03EF026C03FF027C040F028C041F0C8
:1008D80029C042F0000E446E1F0E436E000EAD6F2D
:1008E80093D04306D8A044060F0E3B14456E466AC3
:1008F80046BE08D0465004E10A0E455CD8A002D096
:10090800570E01D0300E4524456E000E4620466E27
:10091800BF0E2B6EFF0E2C6E2A502D6E2E6A2B509A
:100928002D262C502E222E5006E11A0E2D5CD8B002
:1009380002D0010E01D0000E336E346A33503410E9
:10094800D8B427D09F0E2B6EFF0E2C6E200E4510AC
:100958002D6E000E46102E6E2B502D262C502E225A
:100968002E5006E11A0E2D5CD8B002D0010E01D02F
:10097800000E356E366A35503610D8B40AD045C0E8
:1009880007F046C008F07FEC0BF007C045F008C040
:1009980046F08E0E4324D96E000E4420DA6E45C010
:1009A800DFFF3706D8A038063906D8A03A063BC07C
:1009B8002BF03CC02CF03DC02DF03EC02EF03FC0C7
:1009C8002FF040C030F041C031F042C032F0050E87
:1009D80009D0D8903232313230322F322E322D3285
:1009E8002C322B32E82EF5D72BC03BF02CC03CF034
:1009F8002DC03DF02EC03EF02FC03FF030C040F07B
:100A080031C041F032C042F044BE21D0445004E12C
:100A1800020E435CD8A01BD03B503C103D103E104A
:100A28003F10401041104210D8A45BD738BE05D003
:100A3800385002E13704D8B054D73ABE08D03A50FB
:100A480003E13904D8A003D0000186B34AD70001D6
:100A580086A916D04306D8A044068E0E4324D96E24
:100A6800000E4420DA6E2AC0DFFF4306D8A04406F1
:100A78008E0E4324D96E000E4420DA6E300EDF6EDF
:100A880020C015F021C016F08E0E4324176E000EFC
:100A98004420186E39C019F03AC01AF01AEC09F05F
:100AA80015C020F016C021F01200800EFBEC0CF0EF
:100AB800070E0001AE6F7D0EE82EFED7AE2FFCD7D5
:100AC8007CC001F07DC002F0000E046E050E036EBE
:100AD800AAEC0CF001507A24D96E02507B20DA6E11
:100AE800DF500001AE6FAE51B56FB66B7CC001F040
:100AF8007DC002F0000E046E050E036EAAEC0CF029
:100B08007AC0AEF07BC0AFF001500001AE270250B2
:100B1800AF23010EAE25D96E000EAF21DA6EDECFFF
:100B280007F0DDCF08F0030E0A6EE80E096E67ECD9
:100B380009F007C0B1F008C0B2F07CC001F07DC078
:100B480002F0000E046E050E036EAAEC0CF07AC0DB
:100B5800AEF07BC0AFF001500001AE270250AF23CA
:100B6800010EAE25D96E000EAF21DA6EDECF07F08A
:100B7800DDCF08F0030E0A6EE80E096EEAEC09F004
:100B880007C0B3F008C0B4F0C70E6E6EFE0E6F6EED
:100B9800B5C070F0B6C071F0B1C072F0B2C073F0F9
:100BA800B3C074F0B4C075F097EC0CF0C00EFBEC59
:100BB8000CF07CC001F07DC002F0000E046E050E42
:100BC800036EAAEC0CF07AC0AEF07BC0AFF0015017
:100BD8000001AE270250AF23030EAE25D96E000EDA
:100BE800AF21DA6EDF50B06FB051B56FB66BDE0E65
:100BF8006E6EFE0E6F6EB5C070F0B6C071F097ECF9
:100C08000CF0900EFBEC0CF07CC001F07DC002F003
:100C1800000E046E050E036EAAEC0CF07AC0AEF05E
:100C28007BC0AFF001500001AE270250AF23040E85
:100C3800AE25D96E000EAF21DA6EDF50B06FB0511D
:100C4800B56FB66BF20E6E6EFE0E6F6EB5C070F0BD
:100C5800B6C071F097EC0CF0D00EFBEC0CF0D70E90
:100C68006E6EFF0E6F6E97EC0CF01200000E126E97
:100C780010AE12D0101E0F1E0E1E0D1E0C1E0B1EC7
:100C88000A1E096C000E0A220B220C220D220E22CB
:100C98000F221022010E126E08AE12D0081E071E77
:100CA800061E051E041E031E021E016C000E0222F3
:100CB800032204220522062207220822010E121A04
:100CC80020EE13F0070EDE6AE806FDE209500A106E
:100CD8000B100C100D100E100F101010D8B446D0B9
:100CE800010E116E0AD0D89009360A360B360C362A
:100CF8000D360E360F361036112A10AEF4D7D890AE
:100D080013361436153616361736183619361A3677
:100D18000950015C0A5002580B5003580C500458F3
:100D28000D5005580E5006580F50075810500858C7
:100D3800D8A011D00950015E0A50025A0B50035A2C
:100D48000C50045A0D50055A0E50065A0F50075AA7
:100D58001050085A1380D89010320F320E320D32CC
:100D68000C320B320A320932112EC9D71250D8B4BC
:100D780010D01A1E191E181E171E161E151E141E18
:100D8800136C000E1422152216221722182219227B
:100D98001A2213C001F014C002F015C003F016C0E7
:100DA80004F017C005F018C006F019C007F01AC003
:100DB80008F012000AEC0DF0000E036ED00E026E61
:100DC80001EC0DF0000E036E000E026E01EC0DF04A
:100DD80006EC0DF00AEC0DF0000E036ED10E026E5B
:100DE80001EC0DF0000E0001AE6FAE517A24D96E01
:100DF800000E7B20DA6E000EBDEC0CF0DF6E0001F9
:100E0800AE2B050EAE65F1D720EE06F07A50D92646
:100E18007B50DA22010EBDEC0CF0DF6E06EC0DF013
:100E2800800EFBEC0CF0070E7C6E7D0EE82EFED7D4
:100E38007C2EFCD700F0E80E6E6EFF0E6F6E97ECFE
:100E48000CF0C00EFBEC0CF0990E6E6EFE0E6F6E81
:100E580020EE06F07A50D9267B50DA22DF507C6EDD
:100E68007C50706E716A20EE05F07A50D9267B505E
:100E7800DA22DF507D6E7D50726E736A20EE04F0C8
:100E88007A50D9267B50DA22DF507E6E7E50746EFF
:100E9800756A97EC0CF0900EFBEC0CF0B00E6E6ED1
:100EA800FE0E6F6E20EE02F07A50D9267B50DA22C1
:100EB800DF507C6E7C50706E716A20EE01F07A50C3
:100EC800D9267B50DA22DF507D6E7D50726E736AB0
:100ED8007AC0D9FF7BC0DAFFDF507E6E7E50746E19
:100EE800756A97EC0CF0D00EFBEC0CF0A40E6E6E4D
:100EF800FF0E6F6E97EC0CF01200000E166E000ECF
:100F0800156E000E0F6E000E0E6E02D0084A092AEA
:100F1800010E146E08C0F6FF09C0F7FF0800F5506F
:100F2800200AD8B418D0F70E0A6EFF0E0B6E08C050
:100F3800F6FF09C0F7FF0800F5500C6E0D6A0A505D
:100F48000C260B500D220D5004E1050E0C5CD8A0A8
:100F580002D0000E146E14C010F0116A1050111057
:100F6800D8B408D0D3D7000E0F6E010E0E6E084A03
:100F7800092A2ED008C0F6FF09C0F7FF0800F5506F
:100F88000A6E0B6A0B50000AD8A422D00A502B0A0A
:100F9800D8B4EDD7060AD8B4E6D71AD015C001F0F0
:100FA80016C002F0000E046E0A0E036EAAEC0CF0D6
:100FB80008C0F6FF09C0F7FF0800F550015E000EF3
:100FC800025A300E0124156E000E0220166ECFD77D
:100FD800D00E0A6EFF0E0B6E08C0F6FF09C0F7FFB1
:100FE8000800F5500C6E0D6A0A500C260B500D22A5
:100FF8000D5006E10A0E0C5CD8B002D0010E01D0EB
:10100800000E126E136A12501310D8A4C7D70E50D0
:101018000F10D8A40DD015C00AF016C00BF00A1E88
:101028000B1E0A4A0B2A0AC008F00BC009F012006E
:1010380015C008F016C009F01200000E126E08AEB6
:1010480012D0081E071E061E051E041E031E021EC1
:10105800016C000E02220322042205220622072226
:101068000822010E126E10AE10D0101E0F1E0E1E9A
:101078000D1E0C1E0B1E0A1E096C000E0A220B22E6
:101088000C220D220E220F22102209500A100B10DA
:101098000C100D100E100F101010D8B43CD0010E0B
:1010A800116E0AD0D89009360A360B360C360D3632
:1010B8000E360F361036112A10AEF4D70950015CDF
:1010C8000A5002580B5003580C5004580D5005583C
:1010D8000E5006580F50075810500858D8A010D076
:1010E8000950015E0A50025A0B50035A0C50045A18
:1010F8000D50055A0E50065A0F50075A1050085AEC
:10110800D89010320F320E320D320C320B320A32B6
:101118000932112ED3D71250D8B410D0081E071E8A
:10112800061E051E041E031E021E016C000E02226E
:1011380003220422052206220722082201C001F008
:1011480002C002F003C003F004C004F005C005F0BB
:1011580006C006F007C007F008C008F01200800EAD
:10116800FBEC0CF0070E7C6E7D0EE82EFED77C2E75
:10117800FCD700F0710E6E6EFF0E6F6E97EC0CF0E0
:10118800C00EFBEC0CF0600E6E6EFF0E6F6E97ECEF
:101198000CF0900EFBEC0CF04F0E6E6EFF0E6F6EA7
:1011A80097EC0CF0D00EFBEC0CF03E0E6E6EFF0EC2
:1011B8006F6E97EC0CF0D00EFBEC0CF0000E0001FB
:1011C800AF6F000EAE6FAF5115E1030EAE5DD8B034
:1011D80011D0F90E6E6EFF0E6F6EAE517A24D96E75
:1011E800AF517B20DA6EDF507C6E7C50706E716A76
:1011F80097EC0CF0040E7D6E2C0E7C6EAC0EE82E77
:10120800FED77C2EFCD77D2EFAD7B30E6E6EFF0E5E
:101218006F6E97EC0CF00001AE4BAF2BAF5105E1B0
:101228000D0EAE5DD8B01200CED71200000186A117
:101238000AD017C00EF018C00FF015C010F016C075
:1012480011F0C3EC0BF01ABE05D019C01EF01AC07D
:101258001FF004D0000E1F6E000E1E6E000E1D6ED5
:10126800000E1C6E0CD0000E066E200E056E15C00A
:1012780007F016C008F059EC0AF01C4A1D2A1E5047
:101288001C5C1D50800A1B6E1F50800A1B58D8A07A
:10129800EAD7000186B10AD017C00EF018C00FF0C7
:1012A80015C010F016C011F0C3EC0BF017C001F018
:1012B80018C002F05AEC0CF01E500124156E1F5095
:1012C8000220166E1200000E0C6E0AAE06D0096CD3
:1012D8000A1ED8B00A2A010E0C6E08AE06D0076C9A
:1012E800081ED8B0082A010E0C1A000E0E6E000E49
:1012F8000D6E09500A10D8B41CD0010E0B6E04D024
:10130800D89009360A360B2A0AAEFAD7D8900D3685
:101318000E360950075C0A500858D8A005D0095065
:10132800075E0A50085A0D80D8900A3209320B2EEF
:10133800EDD70C50D8B404D00D6C0E1ED8B00E2AC0
:101348000DC007F00EC008F01200000E096E000E66
:101358000A6E000E0B6E000E0C6E0550061007107C
:101368000810D8B42AD0010E0D6E06D0D8900536D4
:101378000636073608360D2A08AEF8D7D89009364B
:101388000A360B360C360550015C065002580750D9
:10139800035808500458D8A009D00550015E0650DB
:1013A800025A0750035A0850045A0980D890083244
:1013B8000732063205320D2EE1D709C001F00AC006
:1013C80002F00BC003F00CC004F01200000E0C6E0B
:1013D80008AE06D0076C081ED8B0082A010E0C6E9D
:1013E8000AAE04D0096C0A1ED8B00A2A09500A109D
:1013F800D8B418D0010E0B6E04D0D89009360A362E
:101408000B2A0AAEFAD70950075C0A500858D8A028
:1014180004D00950075E0A50085AD8900A32093297
:101428000B2EF1D70C50D8B404D0076C081ED8B0D6
:10143800082A07C007F008C008F01200800EFBEC6D
:101448000CF0070E7E6E7D0EE82EFED77E2EFCD7A2
:1014580000F02C0E6E6EFF0E6F6E7AC070F07BC0BF
:1014680071F097EC0CF0C00EFBEC0CF0060E6E6EF3
:10147800FF0E6F6E7CC070F0716A97EC0CF0900EE6
:10148800FBEC0CF0190E6E6EFF0E6F6E7DC070F0E7
:10149800716A97EC0CF0D00EFBEC0CF0C60E6E6E79
:1014A800FF0E6F6E97EC0CF0120007500810D8B4BE
:1014B80004D007500810D8A404D00550F5EC0CF05F
:1014C800120020EE04F00750D9260850DA22DE5028
:1014D800DE10D8B416D020EE04F00750D9260850F4
:1014E800DA2210EE02F00750E1260850E222DE5020
:1014F800E65CE650800A0D6EDE50800A0D58D8B0C2
:10150800120020EE02F00750D9260850DA22DE2A0F
:10151800000EDD221200310E056EB20EE82EFED747
:10152800052EFCD700D08C94030ECFEC0CF0110ED6
:10153800056E3A0EE82EFED7052EFCD700D0030E16
:10154800CFEC0CF07D0EE82EFED7320EDAEC0CF064
:10155800280EDAEC0CF0080EDAEC0CF0010EDAECDE
:101568000CF0110E056E3A0EE82EFED7052EFCD7AC
:1015780000D0060EDAEC0CF00F0EFBEC0CF01200AB
:101588000AEC0DF0000E036ED00E026E01EC0DF0A9
:10159800000E036E000E026E01EC0DF006EC0DF06D
:1015A8000AEC0DF0000E036ED10E026E01EC0DF088
:1015B800000E066E06500424D96E000E0520DA6E61
:1015C800000EBDEC0CF0DF6E062A010E0664F2D7A1
:1015D80020EE02F00450D9260550DA22010EBDECA7
:1015E8000CF0DF6E06EC0DF01200C69A9486948813
:1015F800800E016E960E026E980E036E000E046E3B
:101608000EC012F00FC013F010C014F011C015F086
:10161800020ED8901236133614361536E82EF9D73E
:1016280012C005F013C006F014C007F015C008F08A
:10163800A9EC09F00104C86E800EC76E280EC66EAC
:10164800000EC56E1200800EFBEC0CF0070E7A6ED1
:101658007D0EE82EFED77A2EFCD700F0820E6E6E35
:10166800FF0E6F6E97EC0CF0C00EFBEC0CF0930EB7
:101678006E6EFF0E6F6E97EC0CF0900EFBEC0CF09C
:101688003E0E6E6EFF0E6F6E97EC0CF0D00EFBECFC
:101698000CF0B50E6E6EFF0E6F6E97EC0CF012002C
:1016A80068C06CF069C06DF0000E0001816F000E1B
:1016B800806F13D066C047F067C048F06C0E496E63
:1016C800000E4A6E6AC04BF06BC04CF009EC00F09B
:1016D800475000018027485081236CC0F6FF6DC039
:1016E800F7FF0800F5500009D8A4E4D780C066F0D9
:1016F80081C067F012009F0E096EFF0E0A6E07C0C8
:101708000BF008C00CF009500B260A500C220C50A4
:1017180006E11A0E0B5CD8B002D0010E01D0000E03
:101728000D6E0E6A0D500E10D8B405D05F0E07145A
:10173800076E086A120007C007F008C008F0120018
:10174800010E076E200E01180210D8B414D0F70E3F
:10175800036EFF0E046E01C005F002C006F00350D0
:10176800052604500622065004E1050E055CD8A0A3
:1017780002D0000E076E07C001F0026A1200000EC8
:10178800146E000E136E0BD012C005F0066A10C05E
:1017980007F011C008F059EC0AF0134A142A135044
:1017A8000E24D96E14500F20DA6EDF50126E1250CC
:1017B800D8B41200E9D79F0E036EFF0E046E200EF8
:1017C8000110056E000E0210066E03500526045027
:1017D8000622065006E11A0E055CD8B002D0010EAA
:1017E80001D0000E016E026A120014BE05D014501A
:1017F80010E11304D8B00DD013C015F014C016F0C2
:10180800151E161E154A162A15C013F016C014F018
:10181800120013C013F014C014F012009F0E036ED0
:10182800FF0E046E01C005F002C006F00350052645
:1018380004500622065006E11A0E055CD8B002D004
:10184800010E01D0000E016E026A1200BF0E036E77
:10185800FF0E046E01C005F002C006F00350052615
:1018680004500622065006E11A0E055CD8B002D0D4
:10187800010E01D0000E016E026A1200D00E036E36
:10188800FF0E046E01C005F002C006F003500526E5
:1018980004500622065006E10A0E055CD8B002D0B4
:1018A800010E01D0000E016E026A120001C003F0A1
:1018B80002C004F002D0014A022A01C0D9FF02C0C6
:1018C800DAFFDF50D8A4F7D70350015C016E04504B
:1018D8000258026E1200000EF2BE010E016EF29E58
:1018E8008C86140EE82EFED700D08C96530EE82E68
:1018F800FED700F001B002D0F29E01D0F28E1200A5
:1019080001EE00F04B0EEE6AE806FDE100EE80F015
:101918002E0EEE6AE806FDE17F907F92000EF86ECB
:101928000001E1EF01F0700E786E000E796E000E86
:10193800666E000E676E6EC068F06FC069F0780E54
:101948006A6E000E6B6E54EC0BF01200015003022D
:10195800F3CF05F0F4CF06F001500402F350062649
:1019680002500302F350062605C001F006C002F03B
:101978001200026EE3EC0CF0C586E3EC0CF0C9CF64
:1019880003F0E3EC0CF002B002D0C59A01D0C58A8E
:10199800C58803501200026E8C500F0B8C6E0238F3
:1019A800F00B8C108C6E6FEC0CF01200036E033889
:1019B8000F0BCFEC0CF00350CFEC0CF01200C7B4B7
:1019C800FED7C5CF01F01F0E0116D8B41200F7D705
:1019D8000600F0A004D0010E00018D6FF0907F92F8
:1019E8001100046E8C840450DAEC0CF01200046EC2
:1019F8008C940450DAEC0CF01200E3EC0CF002C00A
:101A0800C9FF1200E3EC0CF0C5841200E3EC0CF003
:041A1800C580120073
:10FE7A00003132334134353642373839432A302358
:10FE8A0044000025160128011900041050104020D2
:10FE9A00202020253032782F253032782F25303215
:10FEAA0078202020200020202020253032783A2572
:10FEBA003032783A253032782020202000506F6C7A
:10FECA00652530317820506F733A253031642E25FC
:10FEDA0030336400546972657320537570703A2028
:10FEEA0020202530316420005469726573206F6EBA
:10FEFA0020506F6C653A2530316420005469726570
:10FF0A007320537570703A202025303278200050C3
:10FF1A006F6C6520436F756E743A202025303278F5
:10FF2A002000546F74616C2054696D653A20253045
:10FF3A003378730020202020202020202020202019
:10FF4A002020202000202020696E2070726F6772A6
:10FF5A0065737320200020206973206375727265AF
:10FF6A006E746C792020002020546865206F7065BB
:10FF7A00726174696F6E2000313A2047656E65724E
:10FF8A00616C20496E666F2000323A20506F6C65B2
:10FF9A002044657461696C7320002D2D2D2D303A33
:10FFAA0053544152542D2D2D2D2D002D2D2D2D2DF7
:10FFBA00303A446F6E652D2D2D2D2D002D2D2D2DB2
:10FFCA002D303A4D656E752D2D2D2D2D003C2A2094
:10FFDA002020303A4D656E75202020233E0054655E
:10FFEA00616D2033312020202020544952450025BC
:05FFFA00303278000028
:020000040020DA
:08000000FFFFFFFFFFFFFFFF00
:020000040030CA
:0E000000FF021F1EFF8381FF0F400FE00F4025
:00000001FF
